{
    "contractName": "Whitelist",
    "abi": [
        {
            "inputs": [
                {
                    "internalType": "uint8",
                    "name": "_maxWhitelistedAddresses",
                    "type": "uint8"
                }
            ],
            "stateMutability": "nonpayable",
            "type": "constructor"
        },
        {
            "inputs": [],
            "name": "addAddressToWhitelist",
            "outputs": [],
            "stateMutability": "nonpayable",
            "type": "function"
        },
        {
            "inputs": [],
            "name": "maxWhitelistedAddresses",
            "outputs": [
                {
                    "internalType": "uint8",
                    "name": "",
                    "type": "uint8"
                }
            ],
            "stateMutability": "view",
            "type": "function"
        },
        {
            "inputs": [],
            "name": "numAddressesWhitelisted",
            "outputs": [
                {
                    "internalType": "uint8",
                    "name": "",
                    "type": "uint8"
                }
            ],
            "stateMutability": "view",
            "type": "function"
        },
        {
            "inputs": [
                {
                    "internalType": "address",
                    "name": "",
                    "type": "address"
                }
            ],
            "name": "whitelistedAddresses",
            "outputs": [
                {
                    "internalType": "bool",
                    "name": "",
                    "type": "bool"
                }
            ],
            "stateMutability": "view",
            "type": "function"
        }
    ],
    "bytecode": "608060405234801561001057600080fd5b506040516102fd3803806102fd83398101604081905261002f91610048565b6000805460ff191660ff92909216919091179055610072565b60006020828403121561005a57600080fd5b815160ff8116811461006b57600080fd5b9392505050565b61027c806100816000396000f3fe608060405234801561001057600080fd5b506004361061004c5760003560e01c806306c933d81461005157806331a72188146100895780634011d7cd146100a85780638e7314d9146100b5575b600080fd5b61007461005f3660046101e9565b60016020526000908152604090205460ff1681565b60405190151581526020015b60405180910390f35b6000546100969060ff1681565b60405160ff9091168152602001610080565b6002546100969060ff1681565b6100bd6100bf565b005b3360009081526001602052604090205460ff16156101305760405162461bcd60e51b815260206004820152602360248201527f53656e6465722068617320616c7265616479206265656e2077686974656c69736044820152621d195960ea1b60648201526084015b60405180910390fd5b60005460025460ff91821691161061019e5760405162461bcd60e51b815260206004820152602b60248201527f4d6f7265206164647265737365732063616e742062652061646465642c206c6960448201526a1b5a5d081c995858da195960aa1b6064820152608401610127565b3360009081526001602081905260408220805460ff19168217905560028054919290916101cf90849060ff16610219565b92506101000a81548160ff021916908360ff160217905550565b6000602082840312156101fb57600080fd5b81356001600160a01b038116811461021257600080fd5b9392505050565b60ff818116838216019081111561024057634e487b7160e01b600052601160045260246000fd5b9291505056fea26469706673582212200f18cd0ec2ed438bc902a1ef41afea8ae8cf86124fc5990aaa09423430fc2e1064736f6c63430008110033",
    "sourcePath": "/home/pssd/Whitelist-Dapp/contracts/Whitelist.sol",
    "compiler": {
        "name": "solc",
        "version": "0.8.17+commit.8df45f5f"
    },
    "functionHashes": {
        "addAddressToWhitelist()": "8e7314d9",
        "maxWhitelistedAddresses()": "31a72188",
        "numAddressesWhitelisted()": "4011d7cd",
        "whitelistedAddresses(address)": "06c933d8"
    },
    "gasEstimates": {
        "creation": {
            "codeDepositCost": "127200",
            "executionCost": "infinite",
            "totalCost": "infinite"
        },
        "external": {
            "addAddressToWhitelist()": "57401",
            "maxWhitelistedAddresses()": "2313",
            "numAddressesWhitelisted()": "2335",
            "whitelistedAddresses(address)": "2463"
        }
    }
}